{
    "contractName": "AutoBan",
    "abi": [
        {
            "inputs": [
                {
                    "internalType": "string",
                    "name": "_name",
                    "type": "string"
                },
                {
                    "internalType": "uint256",
                    "name": "_price",
                    "type": "uint256"
                },
                {
                    "internalType": "bool",
                    "name": "_leasable",
                    "type": "bool"
                },
                {
                    "internalType": "bool",
                    "name": "_leased",
                    "type": "bool"
                }
            ],
            "name": "AddCar",
            "outputs": [],
            "stateMutability": "nonpayable",
            "type": "function"
        },
        {
            "inputs": [
                {
                    "internalType": "uint256",
                    "name": "_index",
                    "type": "uint256"
                },
                {
                    "internalType": "string",
                    "name": "_brand",
                    "type": "string"
                },
                {
                    "internalType": "string",
                    "name": "_image",
                    "type": "string"
                },
                {
                    "internalType": "string",
                    "name": "_description",
                    "type": "string"
                },
                {
                    "internalType": "string",
                    "name": "_location",
                    "type": "string"
                }
            ],
            "name": "AddCarData",
            "outputs": [],
            "stateMutability": "nonpayable",
            "type": "function"
        },
        {
            "inputs": [
                {
                    "internalType": "uint256",
                    "name": "_index",
                    "type": "uint256"
                }
            ],
            "name": "GetCar",
            "outputs": [
                {
                    "internalType": "address payable",
                    "name": "",
                    "type": "address"
                },
                {
                    "internalType": "string",
                    "name": "",
                    "type": "string"
                },
                {
                    "internalType": "uint256",
                    "name": "",
                    "type": "uint256"
                },
                {
                    "internalType": "uint256",
                    "name": "",
                    "type": "uint256"
                },
                {
                    "internalType": "bool",
                    "name": "",
                    "type": "bool"
                },
                {
                    "internalType": "bool",
                    "name": "",
                    "type": "bool"
                }
            ],
            "stateMutability": "view",
            "type": "function"
        },
        {
            "inputs": [
                {
                    "internalType": "uint256",
                    "name": "_index",
                    "type": "uint256"
                }
            ],
            "name": "LeaseCar",
            "outputs": [],
            "stateMutability": "nonpayable",
            "type": "function"
        },
        {
            "inputs": [
                {
                    "internalType": "uint256",
                    "name": "_index",
                    "type": "uint256"
                }
            ],
            "name": "PutCarUpForLease",
            "outputs": [],
            "stateMutability": "nonpayable",
            "type": "function"
        },
        {
            "inputs": [
                {
                    "internalType": "uint256",
                    "name": "_index",
                    "type": "uint256"
                }
            ],
            "name": "buyCar",
            "outputs": [],
            "stateMutability": "payable",
            "type": "function"
        },
        {
            "inputs": [],
            "name": "getTotalCars",
            "outputs": [
                {
                    "internalType": "uint256",
                    "name": "",
                    "type": "uint256"
                }
            ],
            "stateMutability": "view",
            "type": "function"
        }
    ],
    "bytecode": "608060405260008055600180546001600160a01b03191673874069fa1eb16d44d622f2e0ca25eea172369bc117905534801561003a57600080fd5b50610cd18061004a6000396000f3fe6080604052600436106100705760003560e01c80636c2310601161004e5780636c231060146100da578063d5bbc27c146100ed578063eeb36ee41461010d578063f57759af1461013f57600080fd5b806316223a3e14610075578063268fe141146100985780632b0f238b146100ba575b600080fd5b34801561008157600080fd5b506000546040519081526020015b60405180910390f35b3480156100a457600080fd5b506100b86100b3366004610894565b61015f565b005b3480156100c657600080fd5b506100b86100d53660046108f6565b610333565b6100b86100e8366004610894565b610491565b3480156100f957600080fd5b506100b8610108366004610894565b61060e565b34801561011957600080fd5b5061012d610128366004610894565b610692565b60405161008f969594939291906109c6565b34801561014b57600080fd5b506100b861015a366004610a5b565b610780565b33600090815260046020526040902054600311156101d05760405162461bcd60e51b8152602060048201526024808201527f596f7520617265206e6f7420656c69646761626c6520746f206c6561736520616044820152631031b0b960e11b60648201526084015b60405180910390fd5b60008181526002602052604090206004015460ff166102315760405162461bcd60e51b815260206004820152601760248201527f436172206973206e6f7420757020666f72206c6561736500000000000000000060448201526064016101c7565b60008181526002602081905260408220015461024f90600590610acf565b600083815260026020526040908190206004808201805461ff001916610100179055600154915492516323b872dd60e01b815233918101919091526001600160a01b0392831660248201526044810184905292935016906323b872dd90606401602060405180830381865afa1580156102cc573d6000803e3d6000fd5b505050506040513d601f19601f820116820180604052508101906102f09190610af1565b61032f5760405162461bcd60e51b815260206004820152601060248201526f2a3930b739b332b9103330b4b632b21760811b60448201526064016101c7565b5050565b604051806080016040528089898080601f016020809104026020016040519081016040528093929190818152602001838380828437600092019190915250505090825250604080516020601f8a0181900481028201810190925288815291810191908990899081908401838280828437600092019190915250505090825250604080516020601f880181900481028201810190925286815291810191908790879081908401838280828437600092019190915250505090825250604080516020601f86018190048102820181019092528481529181019190859085908190840183828082843760009201829052509390945250508b8152600360205260409020825190915081906104449082610bb4565b50602082015160018201906104599082610bb4565b506040820151600282019061046e9082610bb4565b50606082015160038201906104839082610bb4565b505050505050505050505050565b600081815260026020526040902060040154610100900460ff16156104f85760405162461bcd60e51b815260206004820152601760248201527f43617220686173206265656e206c6561736564206f757400000000000000000060448201526064016101c7565b600081815260026020526040812060030180549161051583610c74565b9091555050600154600082815260026020819052604091829020805491015491516323b872dd60e01b81523360048201526001600160a01b0391821660248201526044810192909252909116906323b872dd90606401602060405180830381865afa158015610588573d6000803e3d6000fd5b505050506040513d601f19601f820116820180604052508101906105ac9190610af1565b6105eb5760405162461bcd60e51b815260206004820152601060248201526f2a3930b739b332b9103330b4b632b21760811b60448201526064016101c7565b33600090815260046020526040812080549161060683610c74565b919050555050565b6000818152600260205260409020546001600160a01b031633146106745760405162461bcd60e51b815260206004820152601a60248201527f54686973206973206e6f7420796f75727320746f206c6561736500000000000060448201526064016101c7565b6000908152600260205260409020600401805460ff19166001179055565b60008181526002602081905260408220805491810154600382015460048301546001909301805460609587958695869586956001600160a01b03909416949192909160ff6101008304811692169085906106eb90610b2b565b80601f016020809104026020016040519081016040528092919081815260200182805461071790610b2b565b80156107645780601f1061073957610100808354040283529160200191610764565b820191906000526020600020905b81548152906001019060200180831161074757829003601f168201915b5050505050945095509550955095509550955091939550919395565b60006040518060c00160405280336001600160a01b0316815260200187878080601f01602080910402602001604051908101604052809392919081815260200183838082843760009201829052509385525050506020808301889052604080840186905287151560608501528615156080909401939093528154825260028152919020825181546001600160a01b0319166001600160a01b039091161781559082015160018201906108329082610bb4565b50604082015160028201556060820151600382015560808201516004909101805460a09093015115156101000261ff00199215159290921661ffff199093169290921717905560008054908061088783610c74565b9190505550505050505050565b6000602082840312156108a657600080fd5b5035919050565b60008083601f8401126108bf57600080fd5b50813567ffffffffffffffff8111156108d757600080fd5b6020830191508360208285010111156108ef57600080fd5b9250929050565b600080600080600080600080600060a08a8c03121561091457600080fd5b8935985060208a013567ffffffffffffffff8082111561093357600080fd5b61093f8d838e016108ad565b909a50985060408c013591508082111561095857600080fd5b6109648d838e016108ad565b909850965060608c013591508082111561097d57600080fd5b6109898d838e016108ad565b909650945060808c01359150808211156109a257600080fd5b506109af8c828d016108ad565b915080935050809150509295985092959850929598565b60018060a01b03871681526000602060c08184015287518060c085015260005b81811015610a025789810183015185820160e0015282016109e6565b50600060e0828601015260e0601f19601f83011685010192505050856040830152846060830152610a37608083018515159052565b82151560a0830152979650505050505050565b8015158114610a5857600080fd5b50565b600080600080600060808688031215610a7357600080fd5b853567ffffffffffffffff811115610a8a57600080fd5b610a96888289016108ad565b909650945050602086013592506040860135610ab181610a4a565b91506060860135610ac181610a4a565b809150509295509295909350565b600082610aec57634e487b7160e01b600052601260045260246000fd5b500490565b600060208284031215610b0357600080fd5b8151610b0e81610a4a565b9392505050565b634e487b7160e01b600052604160045260246000fd5b600181811c90821680610b3f57607f821691505b602082108103610b5f57634e487b7160e01b600052602260045260246000fd5b50919050565b601f821115610baf57600081815260208120601f850160051c81016020861015610b8c5750805b601f850160051c820191505b81811015610bab57828155600101610b98565b5050505b505050565b815167ffffffffffffffff811115610bce57610bce610b15565b610be281610bdc8454610b2b565b84610b65565b602080601f831160018114610c175760008415610bff5750858301515b600019600386901b1c1916600185901b178555610bab565b600085815260208120601f198616915b82811015610c4657888601518255948401946001909101908401610c27565b5085821015610c645787850151600019600388901b60f8161c191681555b5050505050600190811b01905550565b600060018201610c9457634e487b7160e01b600052601160045260246000fd5b506001019056fea264697066735822122072d62db0d2048527fc33ea6b85166deb5c383ca81412e892c3a0ce0fd36279ae64736f6c63430008110033",
    "sourcePath": "c:/Users/User/Desktop/Car-Bond/contracts/AutoBan.sol",
    "compiler": {
        "name": "solc",
        "version": "0.8.17+commit.8df45f5f"
    },
    "functionHashes": {
        "AddCar(string,uint256,bool,bool)": "f57759af",
        "AddCarData(uint256,string,string,string,string)": "2b0f238b",
        "GetCar(uint256)": "eeb36ee4",
        "LeaseCar(uint256)": "268fe141",
        "PutCarUpForLease(uint256)": "d5bbc27c",
        "buyCar(uint256)": "6c231060",
        "getTotalCars()": "16223a3e"
    },
    "gasEstimates": {
        "creation": {
            "codeDepositCost": "656200",
            "executionCost": "29931",
            "totalCost": "686131"
        },
        "external": {
            "AddCar(string,uint256,bool,bool)": "infinite",
            "AddCarData(uint256,string,string,string,string)": "infinite",
            "GetCar(uint256)": "infinite",
            "LeaseCar(uint256)": "infinite",
            "PutCarUpForLease(uint256)": "26745",
            "buyCar(uint256)": "infinite",
            "getTotalCars()": "2270"
        }
    }
}